{
  "address": "0x333ba822E8994F2C6a308f47A54a64AFEB6f8077",
  "abi": [
    {
      "inputs": [],
      "stateMutability": "nonpayable",
      "type": "constructor"
    },
    {
      "anonymous": false,
      "inputs": [
        {
          "indexed": true,
          "internalType": "address",
          "name": "owner",
          "type": "address"
        },
        {
          "indexed": true,
          "internalType": "address",
          "name": "spender",
          "type": "address"
        },
        {
          "indexed": false,
          "internalType": "uint256",
          "name": "value",
          "type": "uint256"
        }
      ],
      "name": "Approval",
      "type": "event"
    },
    {
      "anonymous": false,
      "inputs": [
        {
          "indexed": true,
          "internalType": "address",
          "name": "previousOwner",
          "type": "address"
        },
        {
          "indexed": true,
          "internalType": "address",
          "name": "newOwner",
          "type": "address"
        }
      ],
      "name": "OwnershipTransferred",
      "type": "event"
    },
    {
      "anonymous": false,
      "inputs": [
        {
          "indexed": true,
          "internalType": "address",
          "name": "from",
          "type": "address"
        },
        {
          "indexed": true,
          "internalType": "address",
          "name": "to",
          "type": "address"
        },
        {
          "indexed": false,
          "internalType": "uint256",
          "name": "value",
          "type": "uint256"
        }
      ],
      "name": "Transfer",
      "type": "event"
    },
    {
      "stateMutability": "payable",
      "type": "fallback"
    },
    {
      "inputs": [
        {
          "internalType": "address",
          "name": "owner",
          "type": "address"
        },
        {
          "internalType": "address",
          "name": "spender",
          "type": "address"
        }
      ],
      "name": "allowance",
      "outputs": [
        {
          "internalType": "uint256",
          "name": "",
          "type": "uint256"
        }
      ],
      "stateMutability": "view",
      "type": "function"
    },
    {
      "inputs": [
        {
          "internalType": "address",
          "name": "spender",
          "type": "address"
        },
        {
          "internalType": "uint256",
          "name": "amount",
          "type": "uint256"
        }
      ],
      "name": "approve",
      "outputs": [
        {
          "internalType": "bool",
          "name": "",
          "type": "bool"
        }
      ],
      "stateMutability": "nonpayable",
      "type": "function"
    },
    {
      "inputs": [
        {
          "internalType": "address",
          "name": "account",
          "type": "address"
        }
      ],
      "name": "balanceOf",
      "outputs": [
        {
          "internalType": "uint256",
          "name": "",
          "type": "uint256"
        }
      ],
      "stateMutability": "view",
      "type": "function"
    },
    {
      "inputs": [],
      "name": "decimals",
      "outputs": [
        {
          "internalType": "uint8",
          "name": "",
          "type": "uint8"
        }
      ],
      "stateMutability": "view",
      "type": "function"
    },
    {
      "inputs": [
        {
          "internalType": "address",
          "name": "spender",
          "type": "address"
        },
        {
          "internalType": "uint256",
          "name": "subtractedValue",
          "type": "uint256"
        }
      ],
      "name": "decreaseAllowance",
      "outputs": [
        {
          "internalType": "bool",
          "name": "",
          "type": "bool"
        }
      ],
      "stateMutability": "nonpayable",
      "type": "function"
    },
    {
      "inputs": [
        {
          "internalType": "address",
          "name": "spender",
          "type": "address"
        },
        {
          "internalType": "uint256",
          "name": "addedValue",
          "type": "uint256"
        }
      ],
      "name": "increaseAllowance",
      "outputs": [
        {
          "internalType": "bool",
          "name": "",
          "type": "bool"
        }
      ],
      "stateMutability": "nonpayable",
      "type": "function"
    },
    {
      "inputs": [],
      "name": "maxTotalSupply",
      "outputs": [
        {
          "internalType": "uint256",
          "name": "",
          "type": "uint256"
        }
      ],
      "stateMutability": "view",
      "type": "function"
    },
    {
      "inputs": [
        {
          "internalType": "uint256",
          "name": "amount",
          "type": "uint256"
        }
      ],
      "name": "mint",
      "outputs": [],
      "stateMutability": "payable",
      "type": "function"
    },
    {
      "inputs": [],
      "name": "name",
      "outputs": [
        {
          "internalType": "string",
          "name": "",
          "type": "string"
        }
      ],
      "stateMutability": "view",
      "type": "function"
    },
    {
      "inputs": [],
      "name": "owner",
      "outputs": [
        {
          "internalType": "address",
          "name": "",
          "type": "address"
        }
      ],
      "stateMutability": "view",
      "type": "function"
    },
    {
      "inputs": [],
      "name": "renounceOwnership",
      "outputs": [],
      "stateMutability": "nonpayable",
      "type": "function"
    },
    {
      "inputs": [],
      "name": "symbol",
      "outputs": [
        {
          "internalType": "string",
          "name": "",
          "type": "string"
        }
      ],
      "stateMutability": "view",
      "type": "function"
    },
    {
      "inputs": [],
      "name": "tokenPrice",
      "outputs": [
        {
          "internalType": "uint256",
          "name": "",
          "type": "uint256"
        }
      ],
      "stateMutability": "view",
      "type": "function"
    },
    {
      "inputs": [],
      "name": "totalSupply",
      "outputs": [
        {
          "internalType": "uint256",
          "name": "",
          "type": "uint256"
        }
      ],
      "stateMutability": "view",
      "type": "function"
    },
    {
      "inputs": [
        {
          "internalType": "address",
          "name": "to",
          "type": "address"
        },
        {
          "internalType": "uint256",
          "name": "amount",
          "type": "uint256"
        }
      ],
      "name": "transfer",
      "outputs": [
        {
          "internalType": "bool",
          "name": "",
          "type": "bool"
        }
      ],
      "stateMutability": "nonpayable",
      "type": "function"
    },
    {
      "inputs": [
        {
          "internalType": "address",
          "name": "from",
          "type": "address"
        },
        {
          "internalType": "address",
          "name": "to",
          "type": "address"
        },
        {
          "internalType": "uint256",
          "name": "amount",
          "type": "uint256"
        }
      ],
      "name": "transferFrom",
      "outputs": [
        {
          "internalType": "bool",
          "name": "",
          "type": "bool"
        }
      ],
      "stateMutability": "nonpayable",
      "type": "function"
    },
    {
      "inputs": [
        {
          "internalType": "address",
          "name": "newOwner",
          "type": "address"
        }
      ],
      "name": "transferOwnership",
      "outputs": [],
      "stateMutability": "nonpayable",
      "type": "function"
    },
    {
      "inputs": [],
      "name": "withdraw",
      "outputs": [],
      "stateMutability": "nonpayable",
      "type": "function"
    },
    {
      "stateMutability": "payable",
      "type": "receive"
    }
  ],
  "transactionHash": "0xed819a089765884150ecd4806778af8f14e1bb028b798d74f86adc7c9e35e374",
  "args": [],
  "numDeployments": 1,
  "solcInputHash": "70b4309d31dee32dd38f64b289769d3e",
  "bytecode": "0x60806040523480156200001157600080fd5b506040518060400160405280600b81526020017f4c6561726e20546f6b656e0000000000000000000000000000000000000000008152506040518060400160405280600581526020017f4c4541524e000000000000000000000000000000000000000000000000000000815250816003908051906020019062000096929190620001a6565b508060049080519060200190620000af929190620001a6565b505050620000d2620000c6620000d860201b60201c565b620000e060201b60201c565b620002bb565b600033905090565b6000600560009054906101000a900473ffffffffffffffffffffffffffffffffffffffff16905081600560006101000a81548173ffffffffffffffffffffffffffffffffffffffff021916908373ffffffffffffffffffffffffffffffffffffffff1602179055508173ffffffffffffffffffffffffffffffffffffffff168173ffffffffffffffffffffffffffffffffffffffff167f8be0079c531659141344cd1fd0a4f28419497f9722a3daafe3b4186f6b6457e060405160405180910390a35050565b828054620001b49062000256565b90600052602060002090601f016020900481019282620001d8576000855562000224565b82601f10620001f357805160ff191683800117855562000224565b8280016001018555821562000224579182015b828111156200022357825182559160200191906001019062000206565b5b50905062000233919062000237565b5090565b5b808211156200025257600081600090555060010162000238565b5090565b600060028204905060018216806200026f57607f821691505b602082108114156200028657620002856200028c565b5b50919050565b7f4e487b7100000000000000000000000000000000000000000000000000000000600052602260045260246000fd5b611d4580620002cb6000396000f3fe60806040526004361061010d5760003560e01c8063715018a611610095578063a0712d6811610064578063a0712d6814610365578063a457c2d714610381578063a9059cbb146103be578063dd62ed3e146103fb578063f2fde38b1461043857610114565b8063715018a6146102cd5780637ff9b596146102e45780638da5cb5b1461030f57806395d89b411461033a57610114565b80632ab4d052116100dc5780632ab4d052146101e6578063313ce56714610211578063395093511461023c5780633ccfd60b1461027957806370a082311461029057610114565b806306fdde0314610116578063095ea7b31461014157806318160ddd1461017e57806323b872dd146101a957610114565b3661011457005b005b34801561012257600080fd5b5061012b610461565b604051610138919061159c565b60405180910390f35b34801561014d57600080fd5b5061016860048036038101906101639190611285565b6104f3565b6040516101759190611581565b60405180910390f35b34801561018a57600080fd5b50610193610516565b6040516101a0919061175e565b60405180910390f35b3480156101b557600080fd5b506101d060048036038101906101cb9190611232565b610520565b6040516101dd9190611581565b60405180910390f35b3480156101f257600080fd5b506101fb61054f565b604051610208919061175e565b60405180910390f35b34801561021d57600080fd5b5061022661055d565b6040516102339190611779565b60405180910390f35b34801561024857600080fd5b50610263600480360381019061025e9190611285565b610566565b6040516102709190611581565b60405180910390f35b34801561028557600080fd5b5061028e61059d565b005b34801561029c57600080fd5b506102b760048036038101906102b291906111c5565b610667565b6040516102c4919061175e565b60405180910390f35b3480156102d957600080fd5b506102e26106af565b005b3480156102f057600080fd5b506102f96106c3565b604051610306919061175e565b60405180910390f35b34801561031b57600080fd5b506103246106cd565b6040516103319190611566565b60405180910390f35b34801561034657600080fd5b5061034f6106f7565b60405161035c919061159c565b60405180910390f35b61037f600480360381019061037a91906112c5565b610789565b005b34801561038d57600080fd5b506103a860048036038101906103a39190611285565b610868565b6040516103b59190611581565b60405180910390f35b3480156103ca57600080fd5b506103e560048036038101906103e09190611285565b6108df565b6040516103f29190611581565b60405180910390f35b34801561040757600080fd5b50610422600480360381019061041d91906111f2565b610902565b60405161042f919061175e565b60405180910390f35b34801561044457600080fd5b5061045f600480360381019061045a91906111c5565b610989565b005b606060038054610470906118f3565b80601f016020809104026020016040519081016040528092919081815260200182805461049c906118f3565b80156104e95780601f106104be576101008083540402835291602001916104e9565b820191906000526020600020905b8154815290600101906020018083116104cc57829003601f168201915b5050505050905090565b6000806104fe610a0d565b905061050b818585610a15565b600191505092915050565b6000600254905090565b60008061052b610a0d565b9050610538858285610be0565b610543858585610c6c565b60019150509392505050565b69d3c21bcecceda100000081565b60006012905090565b600080610571610a0d565b90506105928185856105838589610902565b61058d91906117bb565b610a15565b600191505092915050565b6105a5610eed565b60006105af6106cd565b9050600047905060008273ffffffffffffffffffffffffffffffffffffffff16826040516105dc90611551565b60006040518083038185875af1925050503d8060008114610619576040519150601f19603f3d011682016040523d82523d6000602084013e61061e565b606091505b5050905080610662576040517f08c379a00000000000000000000000000000000000000000000000000000000081526004016106599061167e565b60405180910390fd5b505050565b60008060008373ffffffffffffffffffffffffffffffffffffffff1673ffffffffffffffffffffffffffffffffffffffff168152602001908152602001600020549050919050565b6106b7610eed565b6106c16000610f6b565b565b655af3107a400081565b6000600560009054906101000a900473ffffffffffffffffffffffffffffffffffffffff16905090565b606060048054610706906118f3565b80601f0160208091040260200160405190810160405280929190818152602001828054610732906118f3565b801561077f5780601f106107545761010080835404028352916020019161077f565b820191906000526020600020905b81548152906001019060200180831161076257829003601f168201915b5050505050905090565b600081655af3107a400061079d9190611811565b9050803410156107e2576040517f08c379a00000000000000000000000000000000000000000000000000000000081526004016107d9906115de565b60405180910390fd5b6000670de0b6b3a7640000836107f89190611811565b905069d3c21bcecceda10000008161080e610516565b61081891906117bb565b1115610859576040517f08c379a0000000000000000000000000000000000000000000000000000000008152600401610850906116be565b60405180910390fd5b6108633382611031565b505050565b600080610873610a0d565b905060006108818286610902565b9050838110156108c6576040517f08c379a00000000000000000000000000000000000000000000000000000000081526004016108bd9061171e565b60405180910390fd5b6108d38286868403610a15565b60019250505092915050565b6000806108ea610a0d565b90506108f7818585610c6c565b600191505092915050565b6000600160008473ffffffffffffffffffffffffffffffffffffffff1673ffffffffffffffffffffffffffffffffffffffff16815260200190815260200160002060008373ffffffffffffffffffffffffffffffffffffffff1673ffffffffffffffffffffffffffffffffffffffff16815260200190815260200160002054905092915050565b610991610eed565b600073ffffffffffffffffffffffffffffffffffffffff168173ffffffffffffffffffffffffffffffffffffffff161415610a01576040517f08c379a00000000000000000000000000000000000000000000000000000000081526004016109f8906115fe565b60405180910390fd5b610a0a81610f6b565b50565b600033905090565b600073ffffffffffffffffffffffffffffffffffffffff168373ffffffffffffffffffffffffffffffffffffffff161415610a85576040517f08c379a0000000000000000000000000000000000000000000000000000000008152600401610a7c906116fe565b60405180910390fd5b600073ffffffffffffffffffffffffffffffffffffffff168273ffffffffffffffffffffffffffffffffffffffff161415610af5576040517f08c379a0000000000000000000000000000000000000000000000000000000008152600401610aec9061161e565b60405180910390fd5b80600160008573ffffffffffffffffffffffffffffffffffffffff1673ffffffffffffffffffffffffffffffffffffffff16815260200190815260200160002060008473ffffffffffffffffffffffffffffffffffffffff1673ffffffffffffffffffffffffffffffffffffffff168152602001908152602001600020819055508173ffffffffffffffffffffffffffffffffffffffff168373ffffffffffffffffffffffffffffffffffffffff167f8c5be1e5ebec7d5bd14f71427d1e84f3dd0314c0f7b2291e5b200ac8c7c3b92583604051610bd3919061175e565b60405180910390a3505050565b6000610bec8484610902565b90507fffffffffffffffffffffffffffffffffffffffffffffffffffffffffffffffff8114610c665781811015610c58576040517f08c379a0000000000000000000000000000000000000000000000000000000008152600401610c4f9061163e565b60405180910390fd5b610c658484848403610a15565b5b50505050565b600073ffffffffffffffffffffffffffffffffffffffff168373ffffffffffffffffffffffffffffffffffffffff161415610cdc576040517f08c379a0000000000000000000000000000000000000000000000000000000008152600401610cd3906116de565b60405180910390fd5b600073ffffffffffffffffffffffffffffffffffffffff168273ffffffffffffffffffffffffffffffffffffffff161415610d4c576040517f08c379a0000000000000000000000000000000000000000000000000000000008152600401610d43906115be565b60405180910390fd5b610d57838383611191565b60008060008573ffffffffffffffffffffffffffffffffffffffff1673ffffffffffffffffffffffffffffffffffffffff16815260200190815260200160002054905081811015610ddd576040517f08c379a0000000000000000000000000000000000000000000000000000000008152600401610dd49061165e565b60405180910390fd5b8181036000808673ffffffffffffffffffffffffffffffffffffffff1673ffffffffffffffffffffffffffffffffffffffff16815260200190815260200160002081905550816000808573ffffffffffffffffffffffffffffffffffffffff1673ffffffffffffffffffffffffffffffffffffffff1681526020019081526020016000206000828254610e7091906117bb565b925050819055508273ffffffffffffffffffffffffffffffffffffffff168473ffffffffffffffffffffffffffffffffffffffff167fddf252ad1be2c89b69c2b068fc378daa952ba7f163c4a11628f55a4df523b3ef84604051610ed4919061175e565b60405180910390a3610ee7848484611196565b50505050565b610ef5610a0d565b73ffffffffffffffffffffffffffffffffffffffff16610f136106cd565b73ffffffffffffffffffffffffffffffffffffffff1614610f69576040517f08c379a0000000000000000000000000000000000000000000000000000000008152600401610f609061169e565b60405180910390fd5b565b6000600560009054906101000a900473ffffffffffffffffffffffffffffffffffffffff16905081600560006101000a81548173ffffffffffffffffffffffffffffffffffffffff021916908373ffffffffffffffffffffffffffffffffffffffff1602179055508173ffffffffffffffffffffffffffffffffffffffff168173ffffffffffffffffffffffffffffffffffffffff167f8be0079c531659141344cd1fd0a4f28419497f9722a3daafe3b4186f6b6457e060405160405180910390a35050565b600073ffffffffffffffffffffffffffffffffffffffff168273ffffffffffffffffffffffffffffffffffffffff1614156110a1576040517f08c379a00000000000000000000000000000000000000000000000000000000081526004016110989061173e565b60405180910390fd5b6110ad60008383611191565b80600260008282546110bf91906117bb565b92505081905550806000808473ffffffffffffffffffffffffffffffffffffffff1673ffffffffffffffffffffffffffffffffffffffff168152602001908152602001600020600082825461111491906117bb565b925050819055508173ffffffffffffffffffffffffffffffffffffffff16600073ffffffffffffffffffffffffffffffffffffffff167fddf252ad1be2c89b69c2b068fc378daa952ba7f163c4a11628f55a4df523b3ef83604051611179919061175e565b60405180910390a361118d60008383611196565b5050565b505050565b505050565b6000813590506111aa81611ce1565b92915050565b6000813590506111bf81611cf8565b92915050565b6000602082840312156111db576111da611983565b5b60006111e98482850161119b565b91505092915050565b6000806040838503121561120957611208611983565b5b60006112178582860161119b565b92505060206112288582860161119b565b9150509250929050565b60008060006060848603121561124b5761124a611983565b5b60006112598682870161119b565b935050602061126a8682870161119b565b925050604061127b868287016111b0565b9150509250925092565b6000806040838503121561129c5761129b611983565b5b60006112aa8582860161119b565b92505060206112bb858286016111b0565b9150509250929050565b6000602082840312156112db576112da611983565b5b60006112e9848285016111b0565b91505092915050565b6112fb8161186b565b82525050565b61130a8161187d565b82525050565b600061131b82611794565b61132581856117aa565b93506113358185602086016118c0565b61133e81611988565b840191505092915050565b60006113566023836117aa565b915061136182611999565b604082019050919050565b60006113796017836117aa565b9150611384826119e8565b602082019050919050565b600061139c6026836117aa565b91506113a782611a11565b604082019050919050565b60006113bf6022836117aa565b91506113ca82611a60565b604082019050919050565b60006113e2601d836117aa565b91506113ed82611aaf565b602082019050919050565b60006114056026836117aa565b915061141082611ad8565b604082019050919050565b60006114286014836117aa565b915061143382611b27565b602082019050919050565b600061144b6020836117aa565b915061145682611b50565b602082019050919050565b600061146e6027836117aa565b915061147982611b79565b604082019050919050565b60006114916025836117aa565b915061149c82611bc8565b604082019050919050565b60006114b460008361179f565b91506114bf82611c17565b600082019050919050565b60006114d76024836117aa565b91506114e282611c1a565b604082019050919050565b60006114fa6025836117aa565b915061150582611c69565b604082019050919050565b600061151d601f836117aa565b915061152882611cb8565b602082019050919050565b61153c816118a9565b82525050565b61154b816118b3565b82525050565b600061155c826114a7565b9150819050919050565b600060208201905061157b60008301846112f2565b92915050565b60006020820190506115966000830184611301565b92915050565b600060208201905081810360008301526115b68184611310565b905092915050565b600060208201905081810360008301526115d781611349565b9050919050565b600060208201905081810360008301526115f78161136c565b9050919050565b600060208201905081810360008301526116178161138f565b9050919050565b60006020820190508181036000830152611637816113b2565b9050919050565b60006020820190508181036000830152611657816113d5565b9050919050565b60006020820190508181036000830152611677816113f8565b9050919050565b600060208201905081810360008301526116978161141b565b9050919050565b600060208201905081810360008301526116b78161143e565b9050919050565b600060208201905081810360008301526116d781611461565b9050919050565b600060208201905081810360008301526116f781611484565b9050919050565b60006020820190508181036000830152611717816114ca565b9050919050565b60006020820190508181036000830152611737816114ed565b9050919050565b6000602082019050818103600083015261175781611510565b9050919050565b60006020820190506117736000830184611533565b92915050565b600060208201905061178e6000830184611542565b92915050565b600081519050919050565b600081905092915050565b600082825260208201905092915050565b60006117c6826118a9565b91506117d1836118a9565b9250827fffffffffffffffffffffffffffffffffffffffffffffffffffffffffffffffff0382111561180657611805611925565b5b828201905092915050565b600061181c826118a9565b9150611827836118a9565b9250817fffffffffffffffffffffffffffffffffffffffffffffffffffffffffffffffff04831182151516156118605761185f611925565b5b828202905092915050565b600061187682611889565b9050919050565b60008115159050919050565b600073ffffffffffffffffffffffffffffffffffffffff82169050919050565b6000819050919050565b600060ff82169050919050565b60005b838110156118de5780820151818401526020810190506118c3565b838111156118ed576000848401525b50505050565b6000600282049050600182168061190b57607f821691505b6020821081141561191f5761191e611954565b5b50919050565b7f4e487b7100000000000000000000000000000000000000000000000000000000600052601160045260246000fd5b7f4e487b7100000000000000000000000000000000000000000000000000000000600052602260045260246000fd5b600080fd5b6000601f19601f8301169050919050565b7f45524332303a207472616e7366657220746f20746865207a65726f206164647260008201527f6573730000000000000000000000000000000000000000000000000000000000602082015250565b7f45746865722073656e7420697320696e636f7272656374000000000000000000600082015250565b7f4f776e61626c653a206e6577206f776e657220697320746865207a65726f206160008201527f6464726573730000000000000000000000000000000000000000000000000000602082015250565b7f45524332303a20617070726f766520746f20746865207a65726f20616464726560008201527f7373000000000000000000000000000000000000000000000000000000000000602082015250565b7f45524332303a20696e73756666696369656e7420616c6c6f77616e6365000000600082015250565b7f45524332303a207472616e7366657220616d6f756e742065786365656473206260008201527f616c616e63650000000000000000000000000000000000000000000000000000602082015250565b7f4661696c656420746f2073656e64204574686572000000000000000000000000600082015250565b7f4f776e61626c653a2063616c6c6572206973206e6f7420746865206f776e6572600082015250565b7f4578636565647320746865206d617820746f74616c20737570706c792061766160008201527f696c61626c652e00000000000000000000000000000000000000000000000000602082015250565b7f45524332303a207472616e736665722066726f6d20746865207a65726f20616460008201527f6472657373000000000000000000000000000000000000000000000000000000602082015250565b50565b7f45524332303a20617070726f76652066726f6d20746865207a65726f2061646460008201527f7265737300000000000000000000000000000000000000000000000000000000602082015250565b7f45524332303a2064656372656173656420616c6c6f77616e63652062656c6f7760008201527f207a65726f000000000000000000000000000000000000000000000000000000602082015250565b7f45524332303a206d696e7420746f20746865207a65726f206164647265737300600082015250565b611cea8161186b565b8114611cf557600080fd5b50565b611d01816118a9565b8114611d0c57600080fd5b5056fea2646970667358221220d3930498595d006c18ed1cc1e1eca37672cbb82066c1833fa0eb498663a1a5dc64736f6c63430008070033",
  "devdoc": {
    "kind": "dev",
    "methods": {
      "allowance(address,address)": {
        "details": "See {IERC20-allowance}."
      },
      "approve(address,uint256)": {
        "details": "See {IERC20-approve}. NOTE: If `amount` is the maximum `uint256`, the allowance is not updated on `transferFrom`. This is semantically equivalent to an infinite approval. Requirements: - `spender` cannot be the zero address."
      },
      "balanceOf(address)": {
        "details": "See {IERC20-balanceOf}."
      },
      "decimals()": {
        "details": "Returns the number of decimals used to get its user representation. For example, if `decimals` equals `2`, a balance of `505` tokens should be displayed to a user as `5.05` (`505 / 10 ** 2`). Tokens usually opt for a value of 18, imitating the relationship between Ether and Wei. This is the value {ERC20} uses, unless this function is overridden; NOTE: This information is only used for _display_ purposes: it in no way affects any of the arithmetic of the contract, including {IERC20-balanceOf} and {IERC20-transfer}."
      },
      "decreaseAllowance(address,uint256)": {
        "details": "Atomically decreases the allowance granted to `spender` by the caller. This is an alternative to {approve} that can be used as a mitigation for problems described in {IERC20-approve}. Emits an {Approval} event indicating the updated allowance. Requirements: - `spender` cannot be the zero address. - `spender` must have allowance for the caller of at least `subtractedValue`."
      },
      "increaseAllowance(address,uint256)": {
        "details": "Atomically increases the allowance granted to `spender` by the caller. This is an alternative to {approve} that can be used as a mitigation for problems described in {IERC20-approve}. Emits an {Approval} event indicating the updated allowance. Requirements: - `spender` cannot be the zero address."
      },
      "mint(uint256)": {
        "details": "Mints `amount` number of Learn Tokens Requirements: - `msg.value` should be equal or greater than the tokenPrice * amount"
      },
      "name()": {
        "details": "Returns the name of the token."
      },
      "owner()": {
        "details": "Returns the address of the current owner."
      },
      "renounceOwnership()": {
        "details": "Leaves the contract without owner. It will not be possible to call `onlyOwner` functions anymore. Can only be called by the current owner. NOTE: Renouncing ownership will leave the contract without an owner, thereby removing any functionality that is only available to the owner."
      },
      "symbol()": {
        "details": "Returns the symbol of the token, usually a shorter version of the name."
      },
      "totalSupply()": {
        "details": "See {IERC20-totalSupply}."
      },
      "transfer(address,uint256)": {
        "details": "See {IERC20-transfer}. Requirements: - `to` cannot be the zero address. - the caller must have a balance of at least `amount`."
      },
      "transferFrom(address,address,uint256)": {
        "details": "See {IERC20-transferFrom}. Emits an {Approval} event indicating the updated allowance. This is not required by the EIP. See the note at the beginning of {ERC20}. NOTE: Does not update the allowance if the current allowance is the maximum `uint256`. Requirements: - `from` and `to` cannot be the zero address. - `from` must have a balance of at least `amount`. - the caller must have allowance for ``from``'s tokens of at least `amount`."
      },
      "transferOwnership(address)": {
        "details": "Transfers ownership of the contract to a new account (`newOwner`). Can only be called by the current owner."
      },
      "withdraw()": {
        "details": "withdraws all ETH and tokens sent to the contract Requirements: wallet connected must be owner's address"
      }
    },
    "version": 1
  },
  "userdoc": {
    "kind": "user",
    "methods": {},
    "version": 1
  },
  "storageLayout": {
    "storage": [
      {
        "astId": 168,
        "contract": "contracts/LearnToken.sol:LearnToken",
        "label": "_balances",
        "offset": 0,
        "slot": "0",
        "type": "t_mapping(t_address,t_uint256)"
      },
      {
        "astId": 174,
        "contract": "contracts/LearnToken.sol:LearnToken",
        "label": "_allowances",
        "offset": 0,
        "slot": "1",
        "type": "t_mapping(t_address,t_mapping(t_address,t_uint256))"
      },
      {
        "astId": 176,
        "contract": "contracts/LearnToken.sol:LearnToken",
        "label": "_totalSupply",
        "offset": 0,
        "slot": "2",
        "type": "t_uint256"
      },
      {
        "astId": 178,
        "contract": "contracts/LearnToken.sol:LearnToken",
        "label": "_name",
        "offset": 0,
        "slot": "3",
        "type": "t_string_storage"
      },
      {
        "astId": 180,
        "contract": "contracts/LearnToken.sol:LearnToken",
        "label": "_symbol",
        "offset": 0,
        "slot": "4",
        "type": "t_string_storage"
      },
      {
        "astId": 7,
        "contract": "contracts/LearnToken.sol:LearnToken",
        "label": "_owner",
        "offset": 0,
        "slot": "5",
        "type": "t_address"
      }
    ],
    "types": {
      "t_address": {
        "encoding": "inplace",
        "label": "address",
        "numberOfBytes": "20"
      },
      "t_mapping(t_address,t_mapping(t_address,t_uint256))": {
        "encoding": "mapping",
        "key": "t_address",
        "label": "mapping(address => mapping(address => uint256))",
        "numberOfBytes": "32",
        "value": "t_mapping(t_address,t_uint256)"
      },
      "t_mapping(t_address,t_uint256)": {
        "encoding": "mapping",
        "key": "t_address",
        "label": "mapping(address => uint256)",
        "numberOfBytes": "32",
        "value": "t_uint256"
      },
      "t_string_storage": {
        "encoding": "bytes",
        "label": "string",
        "numberOfBytes": "32"
      },
      "t_uint256": {
        "encoding": "inplace",
        "label": "uint256",
        "numberOfBytes": "32"
      }
    }
  }
}